:020000040000fa
:080000000002040000000000f2
:020000040000fa
:04000800dc02000016
:020000040000fa
:04000c00dc02000012
:020000040000fa
:04001000dc0200000e
:020000040000fa
:04001400dc0200000a
:020000040000fa
:04001800dc02000006
:020000040000fa
:04001c00dc02000002
:020000040000fa
:04002000dc020000fe
:020000040000fa
:04002400dc020000fa
:020000040000fa
:04002800dc020000f6
:020000040000fa
:04002c00dc020000f2
:020000040000fa
:04003000dc020000ee
:020000040000fa
:04003400dc020000ea
:020000040000fa
:04003800dc020000e6
:020000040000fa
:04003c00dc020000e2
:020000040000fa
:04004000dc020000de
:020000040000fa
:04004400dc020000da
:020000040000fa
:04004800dc020000d6
:020000040000fa
:04004c00dc020000d2
:020000040000fa
:04005000dc020000ce
:020000040000fa
:04005400dc020000ca
:020000040000fa
:04005800dc020000c6
:020000040000fa
:04005c00dc020000c2
:020000040000fa
:04006000dc020000be
:020000040000fa
:04006400dc020000ba
:020000040000fa
:04006800dc020000b6
:020000040000fa
:04006c00dc020000b2
:020000040000fa
:04007000dc020000ae
:020000040000fa
:04007400dc020000aa
:020000040000fa
:04007800dc020000a6
:020000040000fa
:04007c00dc020000a2
:020000040000fa
:04008000dc0200009e
:020000040000fa
:04008400dc0200009a
:020000040000fa
:04008800dc02000096
:020000040000fa
:04008c00dc02000092
:020000040000fa
:04009000dc0200008e
:020000040000fa
:04009400dc0200008a
:020000040000fa
:04009800dc02000086
:020000040000fa
:04009c00dc02000082
:020000040000fa
:0400a000dc0200007e
:020000040000fa
:0400a400dc0200007a
:020000040000fa
:0400a800dc02000076
:020000040000fa
:0400ac00dc02000072
:020000040000fa
:0400b000dc0200006e
:020000040000fa
:0400b400dc0200006a
:020000040000fa
:0400b800dc02000066
:020000040000fa
:0400bc00dc02000062
:020000040000fa
:0400c000dc0200005e
:020000040000fa
:0400c400dc0200005a
:020000040000fa
:0400c800dc02000056
:020000040000fa
:0400cc00dc02000052
:020000040000fa
:0400d000dc0200004e
:020000040000fa
:0400d400dc0200004a
:020000040000fa
:0400d800dc02000046
:020000040000fa
:0400dc00dc02000042
:020000040000fa
:0400e000dc0200003e
:020000040000fa
:0400e400dc0200003a
:020000040000fa
:0400e800dc02000036
:020000040000fa
:0400ec00dc02000032
:020000040000fa
:0400f000dc0200002e
:020000040000fa
:0400f400dc0200002a
:020000040000fa
:0400f800dc02000026
:020000040000fa
:0400fc00dc02000022
:020000040000fa
:04010000dc0200001d
:020000040000fa
:04010400dc02000019
:020000040000fa
:04010800dc02000015
:020000040000fa
:04010c00dc02000011
:020000040000fa
:04011000dc0200000d
:020000040000fa
:04011400dc02000009
:020000040000fa
:04011800dc02000005
:020000040000fa
:04011c00dc02000001
:020000040000fa
:04012000dc020000fd
:020000040000fa
:04012400dc020000f9
:020000040000fa
:04012800dc020000f5
:020000040000fa
:04012c00dc020000f1
:020000040000fa
:04013000dc020000ed
:020000040000fa
:04013400dc020000e9
:020000040000fa
:04013800dc020000e5
:020000040000fa
:04013c00dc020000e1
:020000040000fa
:04014000dc020000dd
:020000040000fa
:04014400dc020000d9
:020000040000fa
:04014800dc020000d5
:020000040000fa
:04014c00dc020000d1
:020000040000fa
:04015000dc020000cd
:020000040000fa
:04015400dc020000c9
:020000040000fa
:04015800dc020000c5
:020000040000fa
:04015c00dc020000c1
:020000040000fa
:04016000dc020000bd
:020000040000fa
:04016400dc020000b9
:020000040000fa
:04020800dc02000014
:020000040000fa
:04020c00dc02000010
:020000040000fa
:04021000dc0200000c
:020000040000fa
:04021400dc02000008
:020000040000fa
:04021800dc02000004
:020000040000fa
:04021c00dc02000000
:020000040000fa
:04022000dc020000fc
:020000040000fa
:04022400dc020000f8
:020000040000fa
:04022800dc020000f4
:020000040000fa
:04022c00dc020000f0
:020000040000fa
:04023000dc020000ec
:020000040000fa
:04023400dc020000e8
:020000040000fa
:04023800dc020000e4
:020000040000fa
:04023c00dc020000e0
:020000040000fa
:04024000dc020000dc
:020000040000fa
:04024400dc020000d8
:020000040000fa
:04024800dc020000d4
:020000040000fa
:04024c00dc020000d0
:020000040000fa
:04025000dc020000cc
:020000040000fa
:04025400dc020000c8
:020000040000fa
:04025800dc020000c4
:020000040000fa
:04025c00dc020000c0
:020000040000fa
:04026000dc020000bc
:020000040000fa
:04026400dc020000b8
:020000040000fa
:04026800dc020000b4
:020000040000fa
:04026c00dc020000b0
:020000040000fa
:04027000dc020000ac
:020000040000fa
:04027400dc020000a8
:020000040000fa
:04027800dc020000a4
:020000040000fa
:04027c00dc020000a0
:020000040000fa
:04028000dc0200009c
:020000040000fa
:04028400dc02000098
:020000040000fa
:04028800dc02000094
:020000040000fa
:04028c00dc02000090
:020000040000fa
:04029000dc0200008c
:020000040000fa
:04029400dc02000088
:020000040000fa
:04029800dc02000084
:020000040000fa
:04029c00dc02000080
:020000040000fa
:0402a000dc0200007c
:020000040000fa
:0402a400dc02000078
:020000040000fa
:0402a800dc02000074
:020000040000fa
:0402ac00dc02000070
:020000040000fa
:0402b000dc0200006c
:020000040000fa
:0402b400dc02000068
:020000040000fa
:0402b800dc02000064
:020000040000fa
:0402bc00dc02000060
:020000040000fa
:0402c000dc0200005c
:020000040000fa
:0402c400dc02000058
:020000040000fa
:0402c800dc02000054
:020000040000fa
:0402cc00dc02000050
:020000040000fa
:0402d000dc0200004c
:020000040000fa
:0402d400dc02000048
:020000040000fa
:0402d800dc02000044
:020000040000fa
:0402dc00dc02000040
:020000040000fa
:0402e000dc0200003c
:020000040000fa
:0402e400dc02000038
:020000040000fa
:0402e800dc02000034
:020000040000fa
:0402ec00dc02000030
:020000040000fa
:0402f000dc0200002c
:020000040000fa
:0402f400dc02000028
:020000040000fa
:0402f800dc02000024
:020000040000fa
:0402fc00dc02000020
:020000040000fa
:04030000dc0200001b
:020000040000fa
:04030400dc02000017
:020000040000fa
:04030800dc02000013
:020000040000fa
:04030c00dc0200000f
:020000040000fa
:04031000dc0200000b
:020000040000fa
:04031400dc02000007
:020000040000fa
:04031800dc02000003
:020000040000fa
:04031c00dc020000ff
:020000040000fa
:04032000dc020000fb
:020000040000fa
:04032400dc020000f7
:020000040000fa
:04032800dc020000f3
:020000040000fa
:04032c00dc020000ef
:020000040000fa
:04033000dc020000eb
:020000040000fa
:04033400dc020000e7
:020000040000fa
:04033800dc020000e3
:020000040000fa
:04033c00dc020000df
:020000040000fa
:04034000dc020000db
:020000040000fa
:04034400dc020000d7
:020000040000fa
:04034800dc020000d3
:020000040000fa
:04034c00dc020000cf
:020000040000fa
:04035000dc020000cb
:020000040000fa
:04035400dc020000c7
:020000040000fa
:04035800dc020000c3
:020000040000fa
:04035c00dc020000bf
:020000040000fa
:04036000dc020000bb
:020000040000fa
:04036400dc020000b7
:020000040000fa
:100400002fc220000e7f24000e0188000000000093
:10041000000020000000e000020032000001200087
:100420002002880014000700e50007000000e0003b
:1004300003003a0000022300010020000200370000
:100440000000200001002000810f70000100320038
:1004500014000700000020000000e000020032004d
:1004600000000200000000004e2902000000000011
:100470000040da000000fe004440a900601c20009b
:100480000000e0000300320000002000a00188000e
:100490004440a800000006008a1f78008b1f7800e7
:1004a0000000060091018800800478000000eb0045
:1004b0001a003700e284440032a0b4009905ba0063
:1004c000e284440032a0b4009906ba00e2844400f9
:1004d00032a0b4000006eb00476fde00fd07b2005b
:1004e000636ce10003003a00ebff07000000eb0043
:1004f0000a003700606ce10004003a00005deb0088
:100500008b05e900fdff3e00040037006168e10053
:10051000010032000086eb000b00070019c7ba008b
:100520001905ba000e04e00003003a000a00e000da
:10053000e0ff3a0000000600fe07b2009e018800be
:100540008a047800f5ff3700395dba008b05e900b1
:100550000c003200295dba008b05e900080032006a
:100560000c00e00003003a00e284440032a0b40032
:10057000f5ff370019ddba008b05e900faff3a00f4
:100580008904e800e184440032a0b40000000600c1
:1005900060090400000000007a0904000000000067
:1005a000a809040000000000be1a040000000000ba
:1005b00000000400000000000040da000000fe001f
:1005c0000a00fa0011002000b1bf9f00c0bf9f00c9
:1005d0006a805700ea0c07004fb897000080fa00c5
:1005e000000006000a00fa00e20f500034003e004e
:1005f000f0608000e10f500003003200e20f500075
:1006000011003a000c003700032220000300e00034
:1006100001003a000040da002002e200020035004a
:100620002822ef0021e2a8002342ab000d003a008f
:100630002342a8000b003700032320000300e00042
:1006400001003a000040da003002e200020035000a
:100650003822ef0031e2a8003342ab0001003a003b
:100660003342a800820178000b0037003102fb0002
:10067000e10f500004003a002322ab00feff3a00d5
:1006800024118800030037003322ab00feff3a003c
:10069000a41188008301e9000300e000f3ff3a00a1
:1006a000e10f500003003a002302ab00feff3200ce
:1006b0000b0037003302ab00feff320008003700aa
:1006c00033002000b3bf9f00c0bf9f00d1bf9f0079
:1006d000e2bf9f006a805700ab0c07006fb997001c
:1006e000020078000080fa00000006000a00fa000c
:1006f00051002000b1bf9f00c0bf9f006a8057001b
:10070000a30c07005fb897000080fa000000060005
:10071000889fbe0080047800006180000000e00037
:1007200004003a00190007000084eb000000e0001c
:1007300008003500086180000900e0000500320073
:1007400009004400110007000000e00001003d0026
:100750000084eb00080078004f04be000000060093
:10076000000178001001e200020035001061a800cd
:1007700011e1a80030088000410880000200e0007c
:10078000010032000089be000000060080007800f1
:100790000100e00003003a00000020000061880032
:1007a000000005000080eb0002002000828f500056
:1007b00002003e00016188000000eb00000006001e
:1007c0000000050003f0a200889fbe008a9fbe00c3
:1007d0008c1f7800fa000700010133006450e1002b
:1007e0004f0032006420e1005200320003826c00ae
:1007f00007003b000905d0000306d000820f54001b
:100800000c065d0002003900020032008901780008
:10081000030678008582550004003d000003fd00ba
:100820008103fd008502ea008b854200840f72007f
:1008300002003b0060001000e08018006011b8006a
:100840000005eb007a28e1000a0039000600780074
:10085000c75ddd00f707b200878075002d00370007
:10086000828171000a017800610560008180d100f9
:100870000080d3008502e900f9ff3b000604400038
:100880008784480002003b0060041400e0841c00e0
:100890000988a300070032008a81710082817100fb
:1008a000610164008904d1000884d3008b05e8004d
:1008b000170037000978a30013003a000b00e0008e
:1008c000130034008b05e9000804440089844c00bf
:1008d0000a4474000978a3000d003a000b00e00000
:1008e000070034008b05e9000804440089844c00ab
:1008f00001003a000b0020000978a300f7ff320046
:100900000001eb0002003700828171000a017800cb
:10091000700007000cf0a70001f0a000b90037003c
:100920006420e10002003a00838f6c00b9003300bc
:100930000801be000200be00b2003700889fbe0062
:100940008a9fbe008c1f78009d000700a400330022
:1009500003866c006450e1002e0032006420e10048
:10096000330032006150e1002f0032006120e100cd
:100970003100320085855500eb07b00009002000ea
:1009800008042000050037000804440089844c0056
:100990000a0031000603430087834b000001530027
:1009a00081815b00f8ff33000203be000800a00055
:1009b0000804440089844c00f6ff3900c639dd0084
:1009c0008301730001003200130020008904d1006c
:1009d0000884d3000998a300050032000800a7008e
:1009e0000300a0008904d1000884d3008b05e8002f
:1009f0008904d1000884d3000001eb000281d200f9
:100a00003400070001f0a1000cf0a70001f0a000e5
:100a10007c0037006420e1007e0032000801be0047
:100a20000200be00f7ff37006120e10079003200cc
:100a30006000b800f3ff37000000200001f8270035
:100a4000f0ff370014002000b9003700f4ff2f003a
:100a5000b70037000001be00440007000470a70083
:100a600003f0a10003f8a30013003a006509b100e8
:100a700010003200090035006928e100020035004d
:100a800001002800000005000000400081804800af
:100a90008502e900fcff3a0000000600f88f4200e2
:100aa000050035008100d1000080d3008502e800f8
:100ab000fcff3a00000006008000eb00000005008b
:100ac0004f89de0082017800b40037006011b80061
:100ad000c200370081002000618055000b003d00fe
:100ae0000b00200061fe2f000100e1001d0034001a
:100af00082817100610164008904d1000884d300ff
:100b00000000e800faff3a00710020006100640074
:100b1000030070000200600009003200610444001c
:100b2000e0844c000988a500050032008b05e80030
:100b30006808e10002003a008904d1000884d3006b
:100b4000f20f20000258e10005003d00c75ddd0006
:100b5000f907b200898075000800780000000600df
:100b60000bf827008b00780000000500c70ade00a4
:100b7000f107b200f50fb20008003200e1cf4200e9
:100b8000020032000170a00024000500810f7000f7
:100b9000010032000408050044000500810f7000c8
:100ba00002003a00140005008502e9000000400040
:100bb00081c04800fcff3b000170a000240005003c
:100bc0000004be00e9ff07000003be000405be00ec
:100bd0000200be00e5ff0700844f7500000006001c
:100be0000200be006450e100050036006420e10010
:100bf000020036000968a30001003a000800be00a8
:100c00000160a0004f0678004f05be004f04be00f3
:100c100000000600f0ff2f00f1ff2700f9ff37006a
:100c2000889fbe008a9fbe008c1f7800e4ff0700eb
:100c3000ebff330003866c006450e10024003200b7
:100c40006420e100270032006150e1002200320000
:100c50006120e100210032008b854200eb07b100ea
:100c60000134b800003ab8000804420089844a0000
:100c7000013ab8000030b8008880400009014a00fd
:100c80000400330000004000818048000201490058
:100c90008b05e900c909dd00830170000100320005
:100ca00013002000c814de004814dd004709de00f0
:100cb0001200b200c808de000884700085ff07003b
:100cc00001f0a1000cf0a70001f0a000cdff37005b
:100cd0006120e100cfff32000801be000200be002b
:100ce000f7ff37006150e100fcff3a00c9ff370011
:100cf0006022b800060220000000d0008180d200ef
:100d00000482d2008582d2000000a00002025200bc
:100d100083825a00030031000202420083824a00ab
:100d20000000a1000603e900f3ff3a0000000600fe
:100d3000889fbe008a9fbe00841f7800a0ff070026
:100d40004f00780011003300f0ff2f00838f6c00fc
:100d500006003b00040565000a00a70008003700f4
:100d600009f0a6001000200008003700820f540090
:100d7000838f5c00030039001000200001003e005a
:100d80000000200009f0a7000000ea004f05be00a7
:100d90004f04be000000e00000000600881f78003d
:100da000030478000300e00007003d00600010002d
:100db000e080180060011900e081190002003b008a
:100dc00001f02d00030037000400070008f0a70021
:100dd00001f0a0004f04780000000600889fbe00cc
:100de0008a9fbe00008270000402710004827100bc
:100df000260032000004be000200be006011b800f0
:100e00006b092000950220000182cf000a00390002
:100e10000541b1000082cf00070039000541b10053
:100e20000982cf00040039000541b1000882cf00db
:100e3000010039000541b1000542520012003200a4
:100e40000a003b0082817100610164008100d100d1
:100e50000080d3008984d3000884d3008b05e80088
:100e60000442e800f7ff3a00070037000804440096
:100e700089844c0000004800818048008b05e9000f
:100e80000442e900f9ff3a0012ff07004f05be00d7
:100e90004f04be00000006000000eb0030fe3700eb
:100ea0000618280057c527000202430083824b0022
:100eb0000000430081804b00800f5200818f5a0058
:100ec00003003c000400500085805800fcfe370001
:100ed0000000520081805a00f9fe070001f0a200d4
:100ee000000006000900370030427800b141780068
:100ef000834f520004003200100020000600310031
:100f00000080eb00000006000201e9000200e000a2
:100f1000f5ff3a000000eb000000060021ad2000c4
:100f2000d7050700800078000080eb000100e0009a
:100f30000400350021ad2000a0002000b90007000a
:100f40004f80de000000060080007800010178007c
:100f50003104e000fdff3a000000510000000600ef
:100f6000ee874700889fbe008a9fbe008c9fbe0010
:100f70008e1f7800f0b79f00010678008205780088
:100f800000047800080578000a047800b846780064
:100f90000d00fb008e0007000000e000f9ff3a00a2
:100fa000d0c2b30080cf56000300320000c0e90079
:100fb00080cf560002003a000a05e8000100370021
:100fc000804678000b00e00005003500e18f5500f9
:100fd0000300320040022000808f550006003400dc
:100fe0006044b8000c00e000720032007fb097004f
:100ff000000e7800480037000b00e0000e003200c1
:10100000f08f55001a003a0000c3b3009a4f100049
:1010100017003a001a40900081c7b300814f50007a
:101020000300320081c5b300814f500010003a0028
:101030000a85e8000e003700ab00200000c3b300b3
:101040009a4f10000a003a001a40900081c7b3007e
:10105000814f5000040032008b00200081c5b30096
:10106000814f500002003a000a85e8000b01200081
:101070000a007800000278000400780001c3b30081
:10108000b0cf1000fbff3200040778006044b800c6
:10109000b4b79f000d003700a1b820008140500078
:1010a000c1ef9f006159b9000800be00f30b0700b3
:1010b0004fea97000401fb00cf91de00c8b79f0004
:1010c000d9b79f0002044000838448008e02780054
:1010d0003e00fb0085bf9f00450007000b01780024
:1010e00080007800a0b82000c20507008fba9700e2
:1010f0000000e000e8ff3a003fb29700850f55007e
:1011000007003a006044b8000c00e00029003200fb
:10111000ffb29700050e78006044b8002500370044
:1011200004825200f0ba200060c07d000000fb0085
:10113000000252001700330011003a004fe99700f7
:101140000200fb00cf80de000000540081805c00c4
:10115000800f5400818f5c00090039006159b9008b
:1011600085bf9f00e2fe07008fba97004fb197003e
:10117000dfb19700820f5000838f580005003200c6
:1011800020022000806088000084eb008084eb0057
:1011900005003700d0c2b30080cf560002003a00ed
:1011a00060041400e0841c000c00e0000100320028
:1011b000050e78000800be004f0778004f06be00fd
:1011c0004f05be004f04be00ef00b1000000060056
:1011d0006900e100040035006d00e1000300340007
:1011e0000002b100010032000000050010000500ff
:1011f000800078001104b100030035009101b100b6
:1012000001003c000050a00000000600906080003b
:101210000000e000010032000000010000c12000d9
:1012200000000600889fbe008a1f78000004be00f0
:10123000c900900069009000808f500006003900be
:101240000900780092050700800078000080eb001c
:101250000100e000170035000845780049009000c3
:1012600008587800c00498001900780000b8a3005e
:1012700004003a0000a8a30008003200ea4f54001e
:1012800006003a0009007800c204070080007800d8
:101290000080eb000100e00006003a0000c02000e2
:1012a000190060000200320049009000e00498003c
:1012b0000a80fb004f0578004f04be0000000600c6
:1012c000889fbe00800478000203be0001047800fd
:1012d0006149b800898fd2008381d200080278006a
:1012e0000600be00ac090700088044004f04be00a1
:1012f00000000600881f78000204780008017800ca
:1013000046050700080040004f0478000000060072
:101310000000fa00881f7800000478006a825700f5
:10132000bfb997000801780001962000a09720001f
:10133000160007000000e000020035008040eb00ce
:10134000017478004f0478000080fa000000060065
:10135000889fbe00000478000203be00810478006c
:101360000802780089017800120020000600be0003
:10137000c3070700890f5000010032000004eb0092
:10138000080078004f04be00000006006800fa0064
:10139000889fbe008a9fbe00800478000104780008
:1013a00082057800030578008400780000f92f009a
:1013b0000f004000b0070700d98f9f00fb8f9f00f0
:1013c0000000eb00a09f9f00e88f9f009a84fb0025
:1013d0000904fb008904ea00cf4cde005002200023
:1013e000800f54000d003200e18f54000b003a00d2
:1013f000090178008a0078007f889700df899700cc
:1014000003000100f08f9f000000e0009500320013
:101410002f9897000000e800a09f9f000905450055
:1014200050022000800f5400040032000800e00049
:10143000e6ff3a002f9897008b0037000000eb0082
:10144000809f9f00f0979f00e0979f00d0979f009c
:10145000c0979f00b0979f0007003700a1c02000f1
:101460000100500000004000e1bf20006100780052
:10147000cf98970001007000c09f9f000a04780079
:1014800008057800ba4478008900fb00a0c020005d
:10149000e90407000000e000f0ff3a00a1c2b30039
:1014a00081cf54000e003a008f8897000180e90038
:1014b000808f9f0010007800b09f9f000000e00028
:1014c00005003d000000ea00b09f9f004f98970084
:1014d0000020a000c09f9f000804e8001000370013
:1014e000b09f9f00880078000000eb0005003700e7
:1014f000f3ff2700830f5000020032006a02b90098
:101500000400410001047800880078003101fb00ec
:101510000203b100e90f5100f5ff3600b09f9f00b4
:10152000e0c2b300984f1000020032000080eb00d0
:1015300019003700a0c2b300d84f100007003a00ce
:101540008f8897000180e900808f9f00100078004d
:10155000909f9f000804e800100037000000eb0097
:10156000909f9f008800780005003700f3ff270058
:10157000830f5000020032006a02b90004004100eb
:1015800001047800880078003101fb000203b100fb
:10159000e90f5100f5ff3600909f9f0098447800b6
:1015a0008900fb0060bf2000a30407000000e000ea
:1015b000020032000804e800010037008044eb001c
:1015c000a97f9f0080c6b30080cf540006003a0078
:1015d00098cf140010003a0066405000a07f9f0092
:1015e0000804e8000c003700c0c6b30080cf5400e8
:1015f00009003a0098cf140007003a006740400005
:10160000d84f100002003a006e4050000100370031
:1016100010c7b300a07f9f001801fb00c3fb2f0081
:101620008f81410001f92f008f80400020f92f00a9
:101630000f004000150007000000e00009003a001c
:10164000c1fb2f008f80400020f92f000f004000c9
:101650002f0607000000e000020035000805e80042
:101660005aff37000080eb004f05be004f04be005c
:101670000080fa0000000600030278008201780072
:1016800001017800819a200040ff3700889fbe004a
:101690008a1f7800000478008244780003057800ef
:1016a00070c6b30080cf540021003c0000c0e900a8
:1016b00080cf5400d5003d007240500080cf5400d0
:1016c0003c0132000d003c006c40500080cf5400c3
:1016d0006d013c0000c0e90080cf5400cb003d000c
:1016e00050c2b30080cf5400640132007c404000ff
:1016f00080cf540064013a00c400370010c6b30024
:1017000080cf5400c100320004003c00694050000a
:1017100080cf54005c013a006900370030c6b30046
:1017200080cf5400180032000040e8000900370064
:1017300000c7b30080cf54001001320008003c0005
:1017400000c0e90080cf5400d90032005c003c00aa
:101750006540500080cf54004b013a000f00370025
:1017600050c7b30080cf54005500320063404000a2
:1017700080cf5400520032006540500080cf5400aa
:1017800041013a000b0137001181e900820878001d
:101790002808900012757800410137000868900011
:1017a000c2c6b300824f500007003a001101780012
:1017b00064005100800878001000be004f89de00f0
:1017c000820178001400370012c7b300824f500026
:1017d00003003a001102780068005200050037004b
:1017e000a2c6b300824f500006003a009102780072
:1017f00068805200800878005001be004000be00a2
:10180000050037001180e90080087800100078009a
:10181000cf80de006109b900009cbe000294be00ca
:10182000086a900085c6b300854f52000d00320053
:1018300025c6b300854f520004003a000000fb00ab
:10184000cf80de006109b9000800370045c7b3004a
:10185000854f520003003200e6c24200854f52001d
:1018600004003a00cf80de006109b900009cbe0090
:101870000294be003802be002803be002808900073
:10188000d1c2b300e00f5200e08f5a00e00f5b00be
:10189000e08f5b0008003500b81090000118a3002d
:1018a00002003200b1c2b300030037000108a300f8
:1018b0005100320001c2b300017578004c003700be
:1018c00008689000c2c6b300824f500008003a007a
:1018d0001103780064005300800878001002be00f5
:1018e0006033b8000400be000601be0014003700db
:1018f00012c7b300824f500003003a0091027800f3
:101900006880520005003700a2c6b300824f500025
:1019100006003a0011037800680053008008780040
:101920005001be004000be00050037001180e900f4
:1019300080087800100078008000eb006011b8008b
:10194000009cbe000294be00086a900085c6b300e9
:10195000854f52000d00320025c6b300854f52005e
:1019600004003a000080fb008000eb006011b8002a
:101970000800370045c7b300854f5200030032000e
:10198000e6c24200854f520004003a008000eb009e
:101990006011b800009cbe000294be003810900098
:1019a0000038a300140032003800be002801be0039
:1019b000e00f5000e08f5800e00f5900e08f590011
:1019c0000d00320080c7b30080cf54000300320006
:1019d00080c5b30080cf540007003a00280890006b
:1019e00001c3b300017578000000e80009757800b4
:1019f0000000e800200c9800280890000005450031
:101a00007a049800894078006700370008699000e0
:101a1000c0c4b300804f510006003a009103780023
:101a200068805300800878005001be004000be006e
:101a3000050037001101780064005100800878002b
:101a40001000be00c4080700009cbe000294be0047
:101a5000b8009000280890000100e00002003d005e
:101a6000d1c2b30008003700b81090000118a300dd
:101a700002003200b1c2b300030037000108a30026
:101a80000400320001c2b300017578000000e800d4
:101a9000200c980028089000000545007a04980062
:101aa0008900fb0008007800830007007e003700f3
:101ab00008699000c3c6b3001180e900834f51004c
:101ac000220032000a003c00e4c15100834f510063
:101ad0002500320083c1e800834f5100130032001b
:101ae000e8c15100834f51001e003a000a00370040
:101af00043c7b300834f51001b003200e6c14100d1
:101b0000834f510018003200e9c15100834f51004a
:101b100014003a00050037008008780010007800b3
:101b200028649000084878005f003700800878003b
:101b30001000780018129000cfa2de00612bb900cf
:101b40000498be000690be00570037008008780059
:101b50001000780018119000cf91de000288be00be
:101b6000510037001180e9008008780010007800eb
:101b700018149000080878004b0037001180e90025
:101b80008008780010007800cf80de006109b9007d
:101b9000009cbe000294be0028089000000545008d
:101ba0007a04980081c7b30008007800a9030700f1
:101bb0003d0037000869900050c6b300804f5100c7
:101bc0001a003a0011027800640052008008780080
:101bd0001000be00000c9800110c980088119000b5
:101be0000300e00007003d008081eb000001eb00f6
:101bf000860707000001be008808900081005100a0
:101c0000080037000001eb0080070700008170002a
:101c100003003200080990008200500001003700e4
:101c200088109000410c98001f0037001180e900d7
:101c300080087800100578007a04980088149000d5
:101c40000900e00004003d000a007800befc070027
:101c50008004780007003700090178008000eb005d
:101c60000a007800e30207000000e00001003200f3
:101c70008a045000490c98000b0037002808900097
:101c80000975780006003700280890000005450017
:101c90000904e00001003a0059c2b300094d780080
:101ca0000000e800200c98000000eb004f057800d1
:101cb0004f04be00000006002f04b000889fbe0045
:101cc0008a9fbe008c9fbe008e1f780000077800a0
:101cd00081f79f003e04be002e05be000e1090004e
:101ce0000000e00002003d006000200000179800a6
:101cf0008e00780020fb2f000f0040002b03070010
:101d0000e20f50000a003a0030002000400f980017
:101d1000b1c9b3000ff097008140400060b32000cc
:101d2000e1cf50000d003e0020b320000b00370033
:101d30000000e0000f00340030002000400f980049
:101d4000b1c9b3000ff1970081404100e0b320001a
:101d5000e1cf500001003e00a0b32000fe00900043
:101d6000b0487800b0687800104078009040980043
:101d7000f30037000000e00005003a0022fb2f00ce
:101d80000f014100001978008001eb00e7003700e7
:101d90006022b8006033b8000800be000a01be002f
:101da000350707000000e00001003d000bf0a20035
:101db000705927009f9897000088b900026a280090
:101dc0001300200090070700640650009c9f9f00ae
:101dd00013003b0063061600c0ff2f0000066600dc
:101de0008c01ea00939f9f002db420000800be00e4
:101df0000a01be00070037000c08a30003003200f0
:101e00003d02be002d03be00210807000c86d10054
:101e1000e88646000c00e000f7ff3c0018003700a1
:101e20000c00e00018003200c0ff2f000006660022
:101e30009c9f9f002db420006000b800020020008d
:101e400003ff2300070037000c08a3000300320043
:101e50003d02be002d03be000d0807000c86d10018
:101e6000e88646000c00e000f7ff3c000002be00e0
:101e70000203be000800be000a01be0008070700fa
:101e80000004be000205be008e10900060c6b300c4
:101e90000ff29700804f52000400320060002000d3
:101ea00062c4b300824f520002003a009f9a97002a
:101eb0006a80420081004000f1b79f000103780072
:101ec000f30f53000200340037012000f7b79f00e2
:101ed00000c3b300c0779f0056fb2f000f034300e1
:101ee0000e007800a0b79f00060778003d0037007d
:101ef0000800be000a01be00b60707000006be00cb
:101f00007fb1970068015100f2b79f004240a900dd
:101f10000c003400db0707000002be000203be0015
:101f20000800be000a01be004f0807006022b8008a
:101f300046782d0077192400d50707000004be005d
:101f40000205be00e80047008e0020000802be0027
:101f50000a03be00b4b79f00c5b79f00d6b79f0065
:101f6000e7b79f000c01be00010478000c003700a9
:101f7000a400200005002000c0fd2f000f0040003d
:101f8000070207006fa89700ffa897000fb19700fe
:101f90009fb1970005c3b300056441000001be0076
:101fa000e00f5100e08f5900030034000e07e900f4
:101fb000e10f4700eeff3a00880078003fb4970039
:101fc000cfb497005fb59700efb5970002003700d8
:101fd00000c3b300806078000e07e900fcff3b00ff
:101fe000688740007fb397000600e00007003400d8
:101ff0006022b8006033b8000800be000a01be00cd
:10200000a20607000000e000b9ff3c000e037800c4
:102010002fb7970051fb2f008f8040000103530022
:102020009f9b970067804300909f9f0002003700ae
:102030000603e9000000e900010178008200780051
:1020400003c3b300b1cf1100f9ff3200909f9f008e
:102050008e11900061c6b3000ff29700814f5200bd
:102060000300320061c4b300814f520002003a0005
:102070000000e8000a0037001000200051c6b3003d
:102080008ff2970081cf52000500320005407800a2
:1020900050c4b2000080fb000000e9004f00de00e9
:1020a00083014000868f51000100340086017800d2
:1020b0000300e0001d00350000c3b300868f51000f
:1020c00006003d0062c279006940400041c3b30090
:1020d000814f520001003c00694050008300e9003c
:1020e0008100410001003700840178000302e9000b
:1020f00001037800a142780080cf5200faff32003d
:1021000091c3b300814f500001003a00054be80035
:102110000400e00005003d000201e9008301e80041
:102120001f9b97000603e800969f9f008ff3970080
:102130008700fb001f9a97000e007800060007003a
:102140004f0778004f06be004f05be004f04be008b
:102150002f04b10000000600f0874700889fbe00f2
:102160008a9fbe008c9fbe008e1f780000047800fe
:10217000814478000205be00040678000b00e000f0
:1021800002003c001b0020008ac1200060c6b30092
:1021900080cf54000e00320060c4b30080cf5400e2
:1021a0000b00320070c6b30080cf54000300320031
:1021b00070c4b30080cf540081003a00e40f4600a1
:1021c0007f00350008109000800f56007c003d0015
:1021d0000c06e80060c6b30080cf54001000320047
:1021e00060c4b30080cf54000d003200381090005e
:1021f0000038a30004003a0008109000808f5500ba
:1022000001003d000b149800081090000c005000d5
:102210000014980002003b000000eb00001498003e
:1022200048089000f80090000c00e00026003c00f8
:1022300002c3b300827078000000e800400c9800f0
:10224000881090000100e00003003c00b8109000ee
:102250000138a30005003200f8009000e2c2b3008c
:10226000827078000000e800400c98000810900090
:102270008c00ea00810f500001003d000006ea00da
:102280008c00ea00510c9800000646000c149800df
:102290008b0f5600010034000b0678006c0c980080
:1022a000f800900048089000008040000c01780081
:1022b0008a00780059010700081090000c065000b1
:1022c0007c0c9800900037008c8f550018003d0062
:1022d000008040000b0178008a0078004f01070061
:1022e0004808900000804500400c98008b0556007f
:1022f0005b0c9800881090000100e00003003c0097
:10230000b81090000138a30006003200f8009000d9
:10231000e2c2b30082707800680890000000e80014
:10232000600c980008109000700c98007600370040
:10233000008040000c0178008a0078003701070017
:102340004808900000004600400c98008c8555001d
:10235000881090000100e00003003c00b8109000dd
:102360000138a30005003200f8009000e2c2b3007b
:10237000827078000000e800400c9800081090007f
:10238000808f55000100340080057800f80090002f
:1023900048089000008040008c0045000b01780048
:1023a0001e010700480890000b004000400c9800f8
:1023b000081090008b0550005b0c9800520037000d
:1023c00048089000f80090009a7078000000e8003b
:1023d000400c9800881090000100e00003003c00d1
:1023e000b81090000138a30005003200f8009000fa
:1023f000e2c2b300827078000000e800400c980050
:10240000081090000000e000100034008b05e90087
:10241000808f55000100340080057800f80090009e
:1024200048089000008040008a00e8000b01780016
:10243000fa000700480890000b004000400c98008c
:10244000081090008b0550005b0c9800f80090007d
:102450004808900000804000095878000007e80014
:102460000c00e00004003500b1c2b3000148780060
:102470008e04780004003700d1c2b3000148780010
:102480008e0478000c06ea007d8557008006eb007c
:1024900009003700a20020008c00780072805700ed
:1024a000310007007fb097008fb89700016d78006a
:1024b000000678008d06e8000c00e000f5ff3c0007
:1024c0000d00e00009003a008e04780000c3b3005c
:1024d000805c7800050037008d06e900fc8057001d
:1024e00061c07e0002c3b300825c40000d00e000ca
:1024f000f9ff3c00f8009000480890000080400080
:1025000080845400690c98003810900074006000ba
:10251000f00f50000e003a00c80890002808900004
:1025200000804000d808900001004000e8089000ba
:1025300001004000f808900001004000a810900041
:10254000810f500002003d0000805000300c9800c8
:102550004f0778004f06be004f05be004f04be0077
:102560000f01b1000000060080027800010378002e
:10257000110009000203d80080017800830a780066
:102580000299b900020153009202980005007800f8
:1025900000000600889fbe008a1f780000047800b3
:1025a0000800e0000d003a0008b220007005440069
:1025b0008004eb00580078000000e00004003200c6
:1025c000f4ff07000000e00001003d008084eb0004
:1025d0008a0f5400f7ff3a00250037000000220060
:1025e000180060008004eb0021003200a804900075
:1025f0000f00370009015100384090000000fb0037
:1026000089007800f7f707000000e00007003c00b1
:10261000280090004004980060049800500c980036
:102620001890a0008084eb001100370080844400e3
:1026300048019000828f5400eeff3900280090007e
:10264000400498009800780002c0200002816000d9
:1026500001003a003800900001e8a30002003200b7
:102660006004980001003700500c98008004eb00d3
:10267000090078004f0578004f04be0000000600f6
:10268000889fbe008a9fbe00800478000104780005
:102690002c003700c800900068009000808f500028
:1026a0000400390008007800790007000000e0000d
:1026b000370035000040200018006000090032009b
:1026c000a10020000900780067000700800578005d
:1026d0000b00e00003003200618514000a8545000c
:1026e000040037000900780017fa07000005780099
:1026f0008005eb0048009000e800900080805000ca
:102700008a8f500002003100010578008005eb003f
:102710000a01780089007800400007004800900016
:102720000a004000400498000b00e0000400320062
:102730000800780097ff07000000e00014003a004e
:102740008a8444001904e000d2ff3a00008020008f
:102750001800600006003200080078008dff0700b6
:10276000800078000080eb000100e00009003a00e2
:1027700001c02000988060000000eb0005003200de
:1027800048009000600498000000eb000100370052
:102790000080eb004f05be004f04be0000000600a5
:1027a000881f78008a9fbe008c9fbe0000047800be
:1027b0000205be000406be000401be000a00be0001
:1027c00011050700008cbe000c01be002b0607009f
:1027d0000005550081855d002a0498003b0498009f
:1027e000080078004f06be004f05be004f04780079
:1027f0000000060003003700b0cf100005003200d3
:102800000201e900800178000200e000faff3a00ce
:102810000000050003007800000006008001780039
:1028200002003700b15978000201e9000200e0001f
:10283000fcff3a0000000600020037000304e0003d
:10284000060032000001780002007800b0417800f4
:1028500081cf5100f9ff3a00010037000001eb0081
:1028600002007800000006000001eb000002780082
:10287000b041780081cf510001003a000401780096
:102880000304e000f9ff3a000200780000000600af
:10289000889fbe008a1f780000047800c80090005e
:1028a000680190000000eb00828f50003c0039006e
:1028b000180078002200290002016000e20f510098
:1028c00007003200012020000000e0000100350078
:1028d00001202400008c70000080eb0030003700e5
:1028e0000200260002006000820f500009003a003a
:1028f00038009000808f50000600390008007800f2
:1029000024ff0700800078000080eb000100e00059
:1029100023003a001805780000c020000000650080
:1029200018003a00a804900060022000080040004f
:10293000808f540013003a0000202000dc030700c1
:10294000200498000000e00005003a0029049800e7
:10295000490498008904e800390498000800370009
:102960000a60a0000a0c78004004980001202000b2
:102970008080400031049800400c9800500c980072
:10298000ad02070028009000500498003800900025
:102990006004980000002600180c70000000eb0096
:1029a0004f0578004f04be0000000600889fbe005f
:1029b00000047800e68440001900d0004500de00e5
:1029c000f27f2000820f500010003a00000ceb0054
:1029d000990478006f816400200020001b003a00f9
:1029e000210190000200e00018003a00110190005f
:1029f0000200e00015003a00100020001100e00085
:102a00001200320020002000100037000000e0001b
:102a100004003a0001007800f40207000000e00022
:102a200008003c00f20028001901610001fe2300ab
:102a3000810c710021c02f00010c40000080eb00d0
:102a400002003700000ceb000000eb004f04be005a
:102a500000000600fc874700889fbe008a9fbe00da
:102a60008c9fbe008e1f78000006780080c5b300e2
:102a700080cf50000a0032007740400080cf5000e5
:102a80000a0032006940400080cf50000b00320045
:102a900050be200080bf9f00ae0020000a0037001b
:102aa00042bd200082bf9f000600370053be2000b9
:102ab00083bf9f008e0020000300370054be20001b
:102ac00084bf9f000e0120003c02be002c03be000c
:102ad0000605be000404be0040c6b30080cf50000f
:102ae000030032006540400080cf50000b003a00e8
:102af000e00f5200e08f5a00e00f5b00e08f5b00b8
:102b000006003d006000b8006011b80004045000e9
:102b1000858458000605590087855900e80f57003d
:102b20000400320040002000f00f570038003a0047
:102b30000100370030002000e00f5400e08f5c00ff
:102b4000e00f5d00e08f5d0004003a008c10900003
:102b50008d0120000100e000060032008e00e90037
:102b6000888060008fba9700e5c07800f1ef9f0081
:102b70007d012000800078008100e900050033001d
:102b80008b05d1000a85d3008984d3000884d30043
:102b9000f9ff3700089ebe000a96be0012003700fb
:102ba0008d06e9008e00e900848060000fb997006f
:102bb000e2c1780082fd2f000f01410003f17e0089
:102bc000800078008100e900050033008783d10090
:102bd0000683d3008582d3000482d300f9ff370037
:102be000049ebe000696be003c02be002c03be0042
:102bf000e00f5200e08f5a00e00f5b00e08f5b00b7
:102c00008b0034000d00e000e5ff3c008800370039
:102c10000c68900081c6b300814f50000b00320059
:102c200006003c000004e00008003200e6c050004e
:102c3000814f50004e003a0004003700c1c6b30077
:102c4000814f50004a003a00210037000800e000a0
:102c500004003a000c1090008d0120000000e000fc
:102c600006003200110009000e84d8000fb9970049
:102c7000e2c07800f1ef9f007d0120001100090003
:102c80000e84d8000a003700110009000e04d80095
:102c90008d06e9000e81b900020454008fb8970038
:102ca00061417c0081fd2f008f80400082f07e001a
:102cb000000478000800e000020032000d00e0008f
:102cc000f1ff3c00cfc4de00614db90025003700a4
:102cd000e00f5400e08f5c0004003a000c109000fc
:102ce0008d0120000000e000070032006171b90092
:102cf0000800be00de0407008fb99700e3417800aa
:102d0000f3ef9f007d0120006171b9000800be0053
:102d1000f7f707000b0037006171b9000800be002b
:102d2000b90307008d06e90000f1b9000204540060
:102d30000fba9700e4427c0084fd2f000f0242008e
:102d400005f27e000004be00e00f5000e08f580046
:102d5000020032000d00e000efff3c004fcdde002e
:102d60008a057800089ebe000a96be003000370033
:102d7000e00f5400e08f5c00e00f5d00e08f5d002d
:102d800004003a000c1090008d0120000000e000cb
:102d9000090032006172b900612bb9000800be0061
:102da0000a01be005b0507000fba97006442780075
:102db000f4ef9f007d0120006172b900612bb90022
:102dc0000800be000a01be004b0507000d003700d9
:102dd0006172b900612bb9000800be000a01be0093
:102de000500507008d06e90000f2b9000404540004
:102df0008fba970065427c0085fd2f008f824200cc
:102e000084f27e00009ebe000296be003c04be001e
:102e10002c05be00e00f5400e08f5c00e00f5d0069
:102e2000e08f5d00020034000d00e000e8ff3c0090
:102e3000e80f570010003a003c1090000038a30043
:102e40000d003200f78f560006003e0085fd2f0072
:102e50008f824200e5c07e0000c3b30080cf5000e7
:102e6000050032008d06e90002c3b30081fd2f008a
:102e70008f80400082f07e0078811600420e98001c
:102e80007c00900083fd2f008f8141008d804100e8
:102e900062fe07004c0890008c109000810f5000db
:102ea00006003d0000805000300e98003c1090005d
:102eb0000040a100301698000f0037000100e0002c
:102ec0000d003d00bc109000f4806000f08f5000b9
:102ed00009003a002c119000ac08900081005100cc
:102ee0003c09900082805000008050004240a900c0
:102ef00001003400300e98004f0778004f06be00e6
:102f00004f05be004f04be00cf01b1000000060017
:102f10000400fa00889fbe008a9fbe008c1f7800c4
:102f20000004780001067800a8149000280890009a
:102f30008084540038089000808454004808900031
:102f400080845400580890008084540068089000e1
:102f5000808454007808900080845400000222008d
:102f600090bf9f0000032300a0bf9f003810900077
:102f70000028a30015003a000900e0001300340007
:102f8000090578008a057800e20f55000100360037
:102f90002b002000c80190000b017800ee80570044
:102fa0006800900003000100600498000000e00049
:102fb000aa003200181090000b0040001014980076
:102fc0000b0555004240a900eeff3c002809900087
:102fd0000200e0000c003400c80190008c00780072
:102fe0006800900003000100600498008080eb00fe
:102ff0000000e0009a00320098109000280890002d
:103000000080400010149800380d90000a00e00085
:10301000110034008a057800e20f550001003600e7
:103020002b002000c80190000b017800ec805700b5
:103030006800900003000100600498000000e000b8
:1030400086003200181090000b0040001014980009
:103050000b055500edff370008699000c808900087
:1030600050c6b300804f510008003a000100e00054
:10307000150034005802900008099000980990004b
:103080006800900004000100070037000100e00024
:103090000d003400c801900001017800f800900094
:1030a0006800900003000100600498008080eb003d
:1030b0000000e0006a00320098109000480890007c
:1030c0000080400010149800580d90000a00e000a5
:1030d000110034008a057800e20f55000100360027
:1030e0002b002000c80190000b017800ec805700f5
:1030f0006800900003000100600498000000e000f8
:1031000056003200181090000b0040001014980078
:103110000b055500edff3700086990006808900026
:1031200051c6b300814f51000d003a000000e0008d
:103130001c00340078019000c80890000101410093
:103140006111b800828fd2008381d20058029000b2
:10315000800078006800900004000100090037003a
:103160000000e0000f00340078019000c8089000d3
:1031700081004100c80190000001780068009000c3
:1031800003000100600498008080eb000000e00074
:1031900033003200981090006808900000804000d2
:1031a00010149800780d90000a00e000110034001f
:1031b0008a057800e20f5500010036002b00200040
:1031c000c80190000b017800ec8057006800900067
:1031d00003000100600498000000e0001f003200be
:1031e000181090000b004000101498000b055500bb
:1031f000edff3700381090008000eb000028a3009e
:10320000170032000900e0001500340009057800bd
:10321000e28f5400010036002a002000c80190000f
:103220000a017800ee80570068009000030001005a
:10323000600498000000e0000800320018109000c0
:103240000a004000101498008a8454004240a900eb
:10325000eeff3c008000eb00010037008080eb00b7
:10326000010078004f0678004f05be004f04be00f5
:103270000080fa0000000600010878000000060047
:10328000e6874700889fbe008a9fbe008c9fbe00d5
:103290008e1f780082bf9f0004047800029ab90054
:1032a000f4b79f000400e000590032000fb9970006
:1032b0000200e000570032000006be00040778005c
:1032c000c800900068009000808f50000400390012
:1032d000080078006efd07000000e0003b003500ac
:1032e00000402000180060000a0032008e017800c3
:1032f000a20020000c00be00c40107000005be00b3
:1033000000807500070032008c0455008904e80035
:10331000050037008e0478000a0020000b00200012
:10332000010037008e04780048019000680090008a
:1033300002005000890f5000030031008004780023
:103340000a0020000b0020006111b800828fd2001b
:103350008381d200090278000c00be008e010700b4
:1033600009075700480090000900400040049800f9
:103370000a857500040032000800780085fc07000b
:103380000000e00011003a000e00e0000f003200e3
:103390006148b800808fd2008180d20000007800a0
:1033a00000f0a1008c01d0000001d0000286410095
:1033b0004220a80081864e004200a9004220ae00b3
:1033c0004200a8000c86d300bdff3700008020001b
:1033d0001800600002003200080078006dfc070051
:1033e00000c020001800600002003200c8019000f8
:1033f000630498007fb097000e0750000fb9970044
:10340000110009000287d800800178000100370010
:103410008001eb00030078004f0778004f06be00e4
:103420004f05be004f04be006f00b1000000060053
:10343000e0ab210061003700881f7800a8c12000a0
:103440001804e00003003a00f9ff070020c0b300b1
:10345000004c78004f04780000000600889fbe00f2
:1034600000047800080078004afc07008004780017
:1034700000042000180060000200320028009000c4
:10348000a60007000000eb002004980038409000e0
:103490000004e000050035000000fb0048f40700d0
:1034a0000000e000010032008084eb001810900062
:1034b0000000e000080032008cf407000000e0008b
:1034c000010032008084eb00181090009300070088
:1034d0000000eb00101498000008200018006000a5
:1034e000150032000001eb006000b80023b220009c
:1034f0000202d00063027a00880f520005003a00f1
:103500000000400081804800008041000008eb007e
:103510000600370061004000e08048000201e8003a
:10352000e80f5000e08f5800f0ff3a0008007800e4
:103530007a0007000e003700000c780000c0eb0096
:1035400030449800600220000800400020049800e9
:103550004004980050049800400c980060049800c3
:10356000500c98007004980076004400000c9800fd
:10357000090078004f04be0000000600881f780094
:103580000004eb006140b800e2ff2f00f3ff2f00c2
:10359000ba02070002b32000620078000000e000d9
:1035a00001003200adff07000804e800e80f5400f6
:1035b000f4ff3a004f0478000000060001002000ec
:1035c0000100e00008003200010080000100e0007e
:1035d000050032008100e900010088008100d00070
:1035e0000200800000b1780000000600e600400004
:1035f0001101780005002800850261006f0161005b
:10360000820878000200320012002000110037000a
:10361000a0019000120020000300e0000d003a001d
:10362000900190000300e0000a003a001000e00062
:1036300008003a003600370064034000960878001e
:1036400080017800530b7800900978000408780016
:1036500070015100110278000400e000f6ff320012
:103660001300370064024000140378004f33de007b
:10367000838141008308730080017800d3037800c0
:10368000cf3bde001403780006034300068a730074
:103690001302780004024200100378004f33de006a
:1036a0008609720090017800038841000201e90058
:1036b00091017800ef8f5100eaff360010003700cb
:1036c00080017800530378004f33dd001002d100f1
:1036d000040873006402400094037800cf3bdd00cf
:1036e0001303d10086897300110378004f33dd0086
:1036f0009401d100030a73009108d1000201e8008f
:1037000091017800ff8f5100edff3e00ef886100ce
:103710009188720002007800000006000000e000be
:103720002f003200c0017800e38f51002c003600da
:103730000308a3002a003a00b16080000100e00005
:1037400002003200810f5000040031001100980087
:10375000b0608800160037008200780011019000e8
:103760000200e00002003200800f5100faff390031
:103770001102780084824000850f50001800390043
:10378000808f520003003a00830842000100780055
:10379000070037000200e000030032008301400010
:1037a000830f51000e00390012009800900098001d
:1037b000900090000100e00009003200100140007c
:1037c000828f500006003a0042c120000009eb0041
:1037d000100178001108410091009000110098003c
:1037e00000000600889fbe0000047800a1608000f1
:1037f0000100e00002003200010078000d003700f7
:10380000b160800060c1200004003700910f5400b7
:10381000250036000180e800910090000100e000e2
:10382000faff3a0010003700920f54001e003600d5
:103830000280e800100178000200e000faff3a0080
:1038400011017800b160800060c1200004003700e1
:10385000910f5400140036000180e80091009000a0
:10386000828f5000faff3a00e9608000888f540090
:103870000100310088047800090078003600070054
:103880000000e00004003a00888f54000500320078
:103890008904d100f5ff3700091878009fff070061
:1038a000d2ff37000000eb004f04be00000006000e
:1038b000881f7800630440000800a1008000eb002e
:1038c000800f540021003600e30f540001003e0039
:1038d0004800200008007800c2ff07008000eb00cd
:1038e0000000e0001900320090007800910178009b
:1038f00064815100880f51000300310011019000d4
:1039000002087800070037000881400002087800ac
:103910009101900013019800100178001109140022
:1039200088087800100178000000eb000200e00039
:1039300004003200920190000300e0000100320018
:103940000280e800a06088008180e8000100780023
:103950004f04780000000600800078000000eb00b3
:103960000100e000050034000100780068f3070062
:10397000e10f400001003a000000eb0000000600eb
:1039800000c0da000000060000c0da0000000600f7
:1039900000c0da00000006003400f8000203be0098
:1039a000820270008502720002f0a60000f0a600fc
:1039b0008100e800a10188001500b2000800320073
:1039c000105978000402e9000d0032006100400047
:1039d000fbff39003420ec0000002800f8ff37001e
:1039e000101978000482e9000500320062004000ee
:1039f000fbff39003420ec0000002800f8ff3700fe
:103a00003400f9000601be00000006000300e000db
:103a100007003200a5018000a10188001042780053
:103a2000a50188000402fb00820f52001100320041
:103a30008301e900a5018000a101880010427800ff
:103a4000a50188000404e0000800320000027800ac
:103a50001000b00000026a004260af0000f0a00059
:103a60000482d2000180b000e8ff3700000020008f
:103a700001002000000006008f1fd1000603070090
:103a80008f87e9000000e00000000600809feb0047
:103a9000010307008f87e9000000e0000000060036
:103aa0002800fa00889fbe008a9fbe008c9fbe003f
:103ab00003866b008f0007006400e10044003200c1
:103ac0006408e1004a0032006100e1004600320073
:103ad0006108e10049003200ec0647006000b800d0
:103ae0003d02be003d03be00f48657006011b800e1
:103af0003d04be003d05be007d0320000b003700e5
:103b00000000a0008d06e90013003200040242000c
:103b100085824a0006034b0087834b00000040006b
:103b20008180480002014900838149000802520057
:103b300089825a000a035b008b835b00f0ff3b0025
:103b40000802420089824a000a034b008b834b0023
:103b50008d06e900edff3a008482720086827200d1
:103b6000f707b200878272000100320015002000c2
:103b70001e0490003e0b900006035400e63fb00088
:103b80000368a300070032000000a7000500a000a2
:103b90008301d1000281d3008180d3000080d30053
:103ba0000603e8008301d1000281d3008180d300a5
:103bb0000080d3000002eb000482d2002100070045
:103bc00003f0a1000cf0a70003f0a0005d00370097
:103bd000640247006408e100570032003400be0070
:103be0003401be00f6ff37006108e10052003200e8
:103bf0006011b8006000b800f1ff370003ff270034
:103c000002002000fbff3700839f68000100e000f6
:103c100002003d0060001000e08018000300e0009a
:103c200002003d0060011100e081190030f407003e
:103c30004f00e00002003b0060001000e080180030
:103c40000000060018002000570020000804530060
:103c50000d003d000600200097fc2f000740e1000a
:103c60001e00340084827200610260008301d10072
:103c70000281d3008180d3000080d3000804e800d3
:103c8000f8ff3a004700200061046000050474005a
:103c9000040464000d00320061004000e080480030
:103ca00060014900e081490003b8a5000700320027
:103cb0000603e8006538e10004003a008301d10002
:103cc0000281d3008180d3000080d300f87f2000e0
:103cd0000830e10003003500080378006000b800f8
:103ce0006011b8004433dd00f300b20083017300bb
:103cf00000000600680447000294be000094be0065
:103d0000fc0447008694be008494be00090078003d
:103d1000aa02070008007800a802070099007800ae
:103d2000814f70000b003b000800be0083020700bb
:103d30004f00b10003003700f3ff2700f2ff2f0010
:103d40006110b9004f06be004f05be004f04be0013
:103d50000080fa00000006008103780083f307006a
:103d60000001be006000b8000478a30013003a0010
:103d70006220e10015003e000d0039008301d100f2
:103d80000281d3008180d3008301d1000281d3005e
:103d90008180d3008301d1000281d3008180d300d0
:103da0000538b000c42add00f300b2008381720040
:103db00007f0a70003f0a00000000600f3ff2700b3
:103dc000f2ff2f006110b900fbff370003ff27004f
:103dd000f7ff37001400fa00889fbe008a9fbe00dc
:103de0008c9fbe000004be000205be0068004700b4
:103df0000a90be000890be00700207000070a70085
:103e00000bf0a100304320009e02900080825200ff
:103e1000b0fe2f000028e10011003d00b0fc2f0093
:103e20000028e100150034001e0990008e08900063
:103e30007e0090000501b0000201d1008180d30016
:103e40000080d3008502e800fbff3a000b00e00091
:103e5000bcff3b0060001000e0801800b9ff370095
:103e6000f0ff2f00f1ff27000b00e000b5ff3b0043
:103e70000100280000002000b2ff37006000b800f9
:103e8000b0ff37004f89de008201780072023700f0
:103e90002800fa00889fbe008a9fbe008c9fbe004b
:103ea00003866b0093ff07000028a30064003a001c
:103eb0000128a30067003a000008a30062003a004e
:103ec0000108a30065003a001e009000be089000a3
:103ed00081064000ed3fb100f4805700ee019000f4
:103ee000111ab8008e099000311bb8009e0990008d
:103ef000311cb800511db800f4855700460007007a
:103f0000fe0190003a0007008b85e8003e000700a4
:103f10008e09900040000700ee0190003400070079
:103f20008b85e800380007008e09900040000700ec
:103f30009e0990001b18b800890440000a854800bb
:103f4000fe019000340007008b85e8003800070070
:103f5000ee019000300007008e0990001b18b80099
:103f6000890440000a8548000a98a30008003a0026
:103f70000402420085824a0006034b0087834b00ff
:103f800008044c0089844c000a054d008d06e900a8
:103f900084827200850273004c3add008502720053
:103fa0000100320015002000443ade001400b20087
:103fb0004538de00cb45dd000b007000c540de005b
:103fc000cb4ddd008b8070004549de00cb55dd0018
:103fd0000b017100c551de000d03780019ff0700c9
:103fe00003f0a1000cf0a70003f0a00055ff37007c
:103ff0001b18b8008502400006834800e0834b0090
:1040000060044c00070037001b18b800060340008e
:1040100087834800faff37001b18b8008703400069
:1040200008844800e0844c0060054d000000060054
:104030001b18b8000804400089844800faff3700c4
:104040000108a3003cff3a005800be005801be0022
:10405000e3ff37000008a30037ff3a0009047800a7
:10406000f9ff37000000000007f0a2000c01370044
:104070001ff307000400be0000000600020ab9009a
:10408000001bb9000200b80081004200810043001b
:1040900000000600889fbe008a9fbe0030044200d8
:1040a000b0844a0030054b0090854b006000b100a1
:1040b0000898be000a90be000440e10005c8e10077
:1040c00006d0e10007d8e10002003100680040009e
:1040d0001008e8004f05be004f04be0000000600b7
:1040e000889fbe008a9fbe003004be002005be002f
:1040f0000418540005985c0006185d0007985d00e0
:10410000110020000440e10005c8e10006d0e100f4
:1041100007d8e100010039008000eb001088100092
:104120004f05be004f04be00000006001200fa005a
:10413000889fbe008a9fbe008c9fbe00e0b79f0094
:10414000f1b79f0082bf9f0093bf9f000605be008e
:104150000404be000000eb00d0b79f00c0b79f0072
:10416000b0b79f00a0b79f0090b79f0000067800ef
:104170005fb19700cfb09700820141003fb0970038
:104180000200e00004003d00370007007e80570079
:10419000c0ff070003003700330007007e80570090
:1041a000cfff0700dfb697000d00e0000c003500e0
:1041b0006fb29700ffb297000fbb97009fbb9700ad
:1041c00010002000010020006011b8000002720001
:1041d0008182720002037300838373001b00070057
:1041e0000c06e80001042000810f5600e0ff3a00b1
:1041f0000d00e00004003d000802be000a03be00fe
:104200007e805700a3ff07005fa897000000e00032
:1042100005003a001fb29700afb297003fb3970076
:10422000cfb39700090007006fb09700ffb0970069
:104230000fb997009fb997004f06be004f05be000b
:104240004f04be000080fa000000060001000700d5
:1042500000000600a4b79f00b5b79f00c6b79f0037
:10426000d7b79f00000006004f09de008281710071
:10427000b3b79f004f01de00818040008280700054
:10428000a1b79f008fb097004f09de0000004000eb
:104290000200700090b79f007fa897004f01de00da
:1042a000818040008280700081b79f000d00070070
:1042b0004f3ade000000400004007000f0af9f00a5
:1042c000080007000402420085824a0006034b00f2
:1042d00087834b00dfff07000802be000a03be0011
:1042e000000006002fb29700bfb297004fb39700af
:1042f000dfb3970000000600881f78001800200038
:10430000881f780089ff07008f87e9004f04780035
:1043100000000600801feb0084ff07008f87e90084
:1043200000000600889fbe008a9fbe00e00f50007c
:10433000e08f5800e00f5900e08f59000c003d005d
:104340006044b8006055b8000000540081805c00f3
:1043500002015d0083815d00180020001500070048
:1043600008003d00180007000004eb0005003700be
:104370000004eb000f00070002003d0012000700e0
:1043800018002000dcff07000800e00006003200f3
:104390006022b8006033b8000000520081805a00eb
:1043a00002015b0083815b004f05be004f04be002d
:1043b00000000600e00f5200e08f5a00e00f5b00a3
:1043c000e08f5b00000006006044b8006055b80054
:1043d0000402540085825c0006035d0087835d0053
:1043e00000000600889fbe008a9fbe008c1f7800d8
:1043f000e00f5000e08f5800e00f5900e08f5900a7
:104400000d003d006044b8006055b8000000540045
:1044100081805c0002015d0083815d001c00200042
:104420000820e10009a8e1000ab0e1000bb8e100b2
:104430000d003d00080037000006eb00e00f5200c1
:10444000e08f5a00e00f5b00e08f5b0006003d004c
:104450006044b8006055b8000402540085825c00d6
:1044600006035d0087835d00aaff07000c00e000e3
:10447000060032006022b8006033b800000052002d
:1044800081805a0002015b0083815b004f06780047
:104490004f05be004f04be000000060000000000f3
:1044a0002800fa00889fbe008a9fbe008c9fbe0035
:1044b00007067800878669000c003b00030478003b
:1044c0008704780008f0a10009f0a100840f5000d3
:1044d000858f5800860f5900890f5c000300330058
:1044e0000cf0a20001003a000cf0a10001fe070050
:1044f0006400e1005f003200780147006408e100d9
:10450000610032006c014700748557003200be0024
:104510001201be003a04be001a05be001e03900040
:10452000be0a90008503530006003d000004fd0014
:104530008104fd000205fd008305fd008703ea00fc
:10454000050378000df8a300040032006004140095
:10455000e0841c0060051d00e0851d006022b8009d
:104560007d0320000d38e1008006eb000b003900d0
:104570004433dd00f300b2008301730039003700db
:10458000848272000d027800e10664008b85d10000
:104590000a85d3008984d3000884d3008703e90007
:1045a000f7ff3b0008004000898048000a014900ed
:1045b0008b81490004003b0060001000e08018007f
:1045c00060011900e08119000358a30009003200be
:1045d0008d82720084827200610260008301d100ca
:1045e0000281d3008180d3000080d3000603e8005d
:1045f0001b0037000348a30017003a000600e00044
:10460000170034000603e9000d00a3000000480075
:104610008180480002014900838149000348a300ca
:104620000f003a000600e000090034000603e9002c
:104630000000400081804800020149008381490058
:1046400001003a000003eb000348a300f5ff32002d
:104650006022b80002003700848272006182660026
:1046600078fd070003f0a1000cf0a70003f0a00004
:10467000b4fd3700640147006408e10002003a001d
:104680000df8a300acfd3a003200be001201be00de
:10469000acfd370000000000889fbe008a9fbe006e
:1046a0008c9fbe000404be000605be00809fbe00b5
:1046b000829fbe002f000700040678000800be009d
:1046c0000a01be002b000700840678004f03be00dd
:1046d0004f02be008d4f76007fb09700130033006d
:1046e000f0ff2f008b8f6b0006003b000d0666006d
:1046f0000c00a7000a00370007f0a60010002000f9
:104700000a003700880f5200898f5a008a0f5b0019
:104710008b8f5b00030039001000200001003e0079
:104720000000200007f0a7000000ea004f06be00ce
:104730004f05be004f04be0000000600e4824000aa
:104740001078a30007003200640240001178a30033
:104750003400be001401be00040032000330a70084
:10476000000006003500be001501be000330a000a9
:104770000000060005ff27000582610007003200e7
:104780000428e100010032002400050006000700b3
:1047900001003a004400050004080500020007007b
:1047a000f9ff3a00140005006f8261008102700079
:1047b000850271008502720000000600800078000a
:1047c0005002be005003be004439de00f700b200c4
:1047d000f37f200003016100090032000218e100ac
:1047e00016003a0085017200830173008381730013
:1047f0000008200015003a00400020001300370098
:1048000085017200830173008381730005003a0003
:1048100004a8be0006a8be00100020000b00370050
:104820000201e9000402420085824a0006034b00af
:1048300087834b000748a300f9ff32000740a00020
:1048400004a8be0006a8be0020002000800098003a
:104850009200980000000600881f7800030478008a
:104860000300e00007003d0060001000e080180039
:1048700060011900e081190002003b0001f02d00e9
:10488000030037000400070008f0a70003f0a000b1
:104890004f04780000000600889fbe000082700070
:1048a00004027100048271002400320036432000ab
:1048b000c50020008383cf000a0039000541b10004
:1048c0008283cf00070039000541b1008183cf000a
:1048d000040039000541b1008083cf000100390098
:1048e0000541b10085c353006022b80012003200b8
:1048f0000a003b0084827200610260008301d100e3
:104900000281d3008180d3000080d3000603e80039
:104910008743e800f7ff3a00070037000000400037
:104920008180480002014900838149000603e900b3
:104930008743e900f9ff3a00c2fc07004f04be00bc
:04494000000006006d
:020000040000fa
:10494400496e0000766100006c690000642000007c
:1049540027660000726f00006d27000020690000c8
:104964006e64000065780000004900006e76000067
:10497400616c00006964000020270000746f00006f
:1049840027200000696e00006465000078000000c4
:10499400415400002b4900004f54000053550000bf
:1049a400425300004352000049420000453d0000cc
:1049b40022250000732200002c3200000a000000af
:1049c400415400002b4900004f5400005055000092
:1049d400424c000049530000483d000022250000dd
:1049e400732200002c3100002c2200007b260000e2
:1049f400636100007365000069640000263a0000ea
:104a040020250000732c000020260000534f0000d6
:104a1400432600003a200000252e000032660000e4
:104a24002c20000026610000757400006f6e0000e9
:104a34006f6d0000792600003a200000252e00004a
:104a4400326600002c200000266c00006174000017
:104a54006974000075640000652600003a200000b7
:104a64006869000064640000656e00002c2000008a
:104a7400266c00006f6e000067690000747500000a
:104a840064650000263a00002068000069640000a4
:104a9400646500006e2c0000202600006d6f00008d
:104aa40064650000263a000020250000642c000004
:104ab40020260000696e0000746500007276000014
:104ac400616c00005f620000617400005f730000ad
:104ad400263a000020250000642c00002026000057
:104ae400696e00007465000072760000616c00005d
:104af4005f730000656e0000646900006e6700006b
:104b04005f680000263a000020250000642c0000a5
:104b140020260000616c000065720000745f0000d4
:104b24006261000074740000657200007926000060
:104b34003a200000256400007d2200002c7400004f
:104b440072750000650a000000410000542b00004b
:104b5400494f000054500000554200004c490000e9
:104b6400534800003d22000025730000222c000061
:104b7400312c0000227b00002663000061730000da
:104b840065690000642600003a20000025730000d7
:104b94002c200000265300004f430000263a00005a
:104ba400202500002e320000662c00002026000084
:104bb40061750000746f00006e6f00006d79000075
:104bc400263a0000202500002e320000662c00004a
:104bd400202600006c6100007469000074750000f8
:104be40064650000263a000020250000732c0000b4
:104bf400202600006c6f00006e67000069740000de
:104c040075640000652600003a200000257300004a
:104c14002c200000266d00006f6400006526000053
:104c24003a200000256400002c20000026690000c2
:104c34006e74000065720000766100006c5f000015
:104c440062610000745f0000732600003a200000d7
:104c5400256400002c200000266900006e7400000a
:104c640065720000766100006c5f000073650000ef
:104c74006e640000696e0000675f00006826000033
:104c84003a200000256400002c200000266100006a
:104c94006c650000727400005f62000061740000c3
:104ca4007465000072790000263a00002025000097
:104cb400647d0000222c0000747200007565000001
:0c4cc4000a0000006e6100006e0000009d
:020000040000fa
:104cd0000600fa00200798002e0090006a00b90034
:104ce00000007800100798000000eb00000f78002b
:104cf0000000eb00000f78000400370040f72900a7
:104d000051002000990707001e0fe8001e009000c8
:104d10009e007800808f5000f8ff39000080fa0074
:104d2000000006000800fa002007980031079800ec
:104d30003e00900084f00700100798000000eb0090
:104d4000000f78000000eb00000f7800090037002a
:104d50001e007800ae009000008040009e007800a9
:104d60003e019000810041009140780001487800a8
:104d70001e0fe8001e0090009e007800808f5000fb
:104d8000f3ff35001e009000ae0090000080400050
:104d90008040eb00014878000080fa000000060027
:104da0000e00fa003007980041079800520798005b
:104db000630798000000eb00200798000000eb005c
:104dc000000f78000000eb00100798003e009000f4
:104dd0005df00700200798005e0090000000e000f2
:104de00004003500de0090002e009000808f5000ff
:104df00004003400204a2a0048f007001000200078
:104e000021003700ee0090002e009000808f5000af
:104e100004003400704b2a0040f00700100020000e
:104e200019003700de009000010f78000c003700f9
:104e30001e009000ce009000008040009e00780090
:104e40003e019000810041009140780001487800c7
:104e50001e0090000000e800100798001e0fe800f8
:104e60006e0090009e007800808f5000f0ff3400ac
:104e70001e009000ce009000008040008040eb00bb
:104e8000014878000000eb000080fa0000000600f6
:104e90002400fa0010179800214080002107980094
:104ea000314080003107980051428000410798004e
:104eb00010002000500798000000eb00000f780061
:104ec0001e10900020f00700600798000000eb0023
:104ed000100798000000eb00100798001100370041
:104ee0001e0090009e1090000080400090407800ce
:104ef000c0c2b30080cf500007003a001e00780007
:104f000000004000000047006e0040009e0090003e
:104f1000010878001e0fe8001e0090000000e80065
:104f2000100798009e0090006e009000808f500047
:104f3000ebff3500a20020008000eb001e10900067
:104f400007f007005007980040408000de00900006
:104f5000808f50000700350050408000de00900038
:104f6000808f500003003c00de009000214088004c
:104f700002003700ae009000214088007e009000c3
:104f80000000e8009e10900000804000a200200079
:104f90008000eb00f2ef07005007980060408000af
:104fa000de009000808f50000700350070408000c8
:104fb000de009000808f500003003c00de00900077
:104fc0003140880002003700be0090003140880068
:104fd0000e0890000000e8009e1090000080400045
:104fe000a20020008000eb00ddef070050079800d2
:104ff00080408000de009000808f50000700350068
:1050000090408000de009000808f500003003c0044
:10501000de0090005142880002003700ce00900070
:10502000514288002e0890000001e9001e089000ff
:105030008000e800780047008201780001017800d4
:10504000800078001e10900055ff07007800470090
:10505000a20020008000eb00c1ef070000007800f4
:10506000cf80de0096ee07002041880031418800a5
:105070001e109000b4ef0700000178002e08900089
:105080008000e80078004700820178000101780084
:10509000800078001e10900041ff07007800470054
:1050a000a20020008000eb00adef070000007800b8
:1050b000cf80de0082ee0700c0408800d14088002b
:1050c000c4408000d54080002041800031418000f4
:1050d0000001be000400be00d1ee07004041880080
:1050e000514188000080fa00000006002a00fa0002
:1050f0004017980020c2b300404798000000eb0022
:10510000000f78000000eb00100798001000370037
:105110001e007800ce109000008040009040780083
:105120004e40900080cf500008003a001e009000d2
:105130000000400000004700660040001e087800a4
:105140001e0090000000e800100798001e0fe80005
:105150001e007800ce1090000080400010407800c3
:105160000004e000eaff3a004e0090000001e90070
:105170003e0090008000e8006e0047008201780049
:105180000101780080007800b0a2200004ff070031
:105190006e0090000001e9005e0090008000e800d1
:1051a00078004700820178000101780080007800d3
:1051b000b0a22000fafe07007800470034ff070085
:1051c0000080fa00000006001600fa00000f9800a8
:1051d000110f9800220f9800c0c2b30040479800fa
:1051e0000000eb00000f78000000eb0010079800b3
:1051f000100037001e007800ae08900000804000cc
:10520000904078004e40900080cf500008003a0057
:105210001e009000000040000000470066004000b3
:105220001e0878001e0090000000e800100798009b
:105230001e0fe8001e007800ae08900000804000bd
:10524000104078000004e000eaff3a006e00900091
:105250008000e9005e0090000000e8008101780015
:10526000000178009e0890002e089000ccfe0700f8
:105270007e0090008000e9006e0090000000e800d1
:1052800081017800000178008e0890002e089000bf
:10529000c3fe07000080fa0000000600fe01fa00cd
:1052a000889fbe008a9fbe001b0607000000eb001f
:1052b000d7050700f07f200040168800c9c2a8006b
:1052c000c9e2a8000002eb0082a8230083032000ab
:1052d00000202c0011002000b0040700eeee0700b3
:1052e000c0418800d1418800cd62a8007000200034
:1052f00077fe0700cd62a9000000eb00000f7800e8
:105300001e007800e20f500071013200e20f5000e1
:1053100005003e000000e0000a003200e10f5000ee
:1053200061003200f6ff3700e40f50000102320046
:10533000e40f5000ba023900e50f50006502320058
:10534000efff37000060fe001000200060fe070045
:10535000404280000000e800404288004042800057
:10536000e80f500005003400cd62a80020002000a6
:1053700057fe0700cd62a9004828ef00c6ee0700df
:10538000e0418800f1418800c0418000d1418000a7
:10539000e4418000f54180000001be000400be0031
:1053a000bfee07000002be000040800011408000f8
:1053b0000001be000400be0060ed0700004288004e
:1053c000114288000000eb00201798003040800058
:1053d000cf80de00baed07000002be000042800070
:1053e0001142800018c0b3000001be000400be00de
:1053f00094ed07000000e000010035000044eb00e0
:105400000804e0000b003200244280003542800096
:1054100000428000114280000001be000400be0076
:10542000e9ec07002042880031428800100020008b
:10543000000f78005142800000e120000088b90090
:1054400000007800cf80de009ded07000002be0066
:10545000204280003142800018c0b3000001be002d
:105460000400be0077ed07000000e00001003500f9
:105470000044eb000804e00003003a0060428000b2
:105480000000e000070032000000eb002017980049
:105490006000b800204288003142880020002000cf
:1054a000000f7800e50237001000200079050700a2
:1054b00000000000860507000000e000fdff32004c
:1054c0008a050700cf80de007ded07003233230020
:1054d00033052400d2ed07000002be0080418000a9
:1054e000914180000001be000400be0013ed0700e2
:1054f00002002c00f347240010ed070070428800e2
:10550000814288007442800085428000e040800033
:10551000f14080000001be000400be0007ed07005e
:1055200090428800a14288000000eb005905070066
:1055300000000000660507000000e000fdff3200eb
:105540006a050700cf80de005ded070032332300df
:1055500033052400b2ed07000002be006041800068
:10556000714180000001be000400be00f3ec0700a2
:1055700002002c00f3472400f0ec0700b042880042
:10558000c1428800b4428000c542800000418000d2
:10559000114180000001be000400be00e7ec0700de
:1055a000d0428800e14288003bee0700e0418800dd
:1055b000f1418800c0418000d1418000e441800079
